:100000000C9481050C94C8050C94C8050C94C80583
:100010000C94C8050C94C8050C94C8050C94C8052C
:100020000C94C8050C94C8050C945A0F0C942D1010
:100030000C94A01E0C94C8050C94C8050C94C8051B
:100040000C94C8050C94C8050C94C8050C94C805FC
:100050000C94C8050C94141F0C94C8050C94C80586
:100060000C94C8050C94C8050C94C8050C94C805DC
:100070000C94C8050C94C8050C94C8050C94C805CC
:100080000C94C8050C94C8050C94C8050C94C805BC
:100090000C94C8050C94C8050C94C8050C94C805AC
:1000A0000C94C8050C94C8050C94C80535A131A161
:1000B000041607090B0A1D1B06196405141A0815F6
:1000C0001C171E1F202123222E26242D2527301207
:1000D000182F0C13280F0D340E33C136381110377A
:1000E0002B2CC02A5829E0E3E182E2504F51520004
:1000F0006C6365556D570053A9AAA8545800566DF6
:100100006E2E62595A5B5C5D5E5F6F6061898785A8
:100110003E3F403C4142914490466B470043654519
:100120000048494A4B4C3D4D3B4E3AE5E6E4000061
:10013000AAA9A8090B0A1D1B06196405141A08159B
:100140001C173A3B3C3D3F3E4542404441434947F2
:1001500018524648284B0D4F4A50C14D5111104E70
:100160002B2CC04C5835E0E3E182E24A4D4E4B0067
:100170006CF565F66DF90053A9AAA8F5F600FA6DBD
:100180006EF4F4FBF1FCF2F1F3FA6FF0F989878574
:100190003E3F403C4142914490466B470043654599
:1001A0000048494A4B4C3D4D3B4E3AE5E6E40000E1
:1001B0006164625F686F73745F6B62645F726563D2
:1001C000763A204552524F52282564290A000A00E7
:1001D00025303458006164625F686F73745F6B62CE
:1001E000645F726563763A20004552524F523A205E
:1001F0006D65646961206B6579300A004552524F24
:10020000523A206D65646961206B6579310A005D41
:100210000A0025640020002564007C002530325847
:1002200000200025303258006164625F6D6F757385
:1002300065207261773A205B000A00253031366212
:10024000006164625F686F73745F6D6F7573655F83
:10025000726563763A2000646562756720656E6139
:10026000626C65642E0A005363616E3A20616464B7
:10027000723A25642C20726567333A253034580A67
:1002800000416674657220696E69743A0A00466FAF
:10029000756E643A206D65646961206B6579730AD7
:1002A000005363616E3A20616464723A25642C20C5
:1002B000726567333A253034580A004265666F72BA
:1002C0006520696E69743A0A004B6579626F6172E4
:1002D000642073746172742E0A0055534220636F58
:1002E0006E666967757265642E0A000D0A696E692B
:1002F000740A005B445D005B435D002E03410044D3
:1003000000420020006B006500790062006F006110
:100310000072006400200063006F006E00760065CC
:1003200000720074006500720000000E0374002E5D
:10033000006D002E006B002E00000004030904096C
:10034000027400040100A03209040000010301014D
:100350000009211101000122400007058103080066
:100360000A09040100010301020009211101000131
:10037000224D000705820308000A09040200010358
:100380000000000921110100012236000705830346
:1003900008000A09040300020300000009211101FA
:1003A0000001222200070584032000010705040341
:1003B0002000011201100100000008EDFEDB0A011F
:1003C00001010200010631FF0974A1010975150040
:1003D00026FF009520750881020976150026FF008A
:1003E000952075089102C005010980A101850216BA
:1003F000810026B7001A81002AB700751095018187
:1004000000C0050C0901A1018503160100269C020C
:100410001A01002A9C02751095018100C00501098E
:1004200002A1010901A100050919012905150025ED
:100430000195057501810295017503810105010989
:100440003009311581257F95027508810609381517
:1004500081257F950175088106050C0A38021581F2
:10046000257F950175088106C0C005010906A10117
:10047000050719E029E71500250195087501810296
:100480009501750881010508190129059505750172
:1004900091029501750391010507190029FF1500C7
:1004A00026FF00950675088100C0636F6E73756D39
:1004B00065723A20253034580A0073797374656D7B
:1004C0003A20253034580A000A00253032582000DE
:1004D0006B6579626F6172643A20004C45443A2042
:1004E000253032580A00253032583A2025303862FB
:1004F00025730A00722F632030313233343536379A
:100500000A00290A002575002F002575005D2800C6
:1005100025640020002564002000256400200025BB
:1005200064007C0025303258006D6F7573656B6513
:1005300079205B62746E7C782079207620685D2853
:100540007265702F61636C293A205B006D6B5F7779
:100550006865656C5F74696D655F746F5F6D617808
:10056000203D2025640A006D6B5F776865656C5FD0
:100570006D61785F7370656564203D2025640A00B5
:100580006D6B5F74696D655F746F5F6D6178203D41
:100590002025640A006D6B5F6D61785F737065651F
:1005A00064203D2025640A006D6B5F696E7465727E
:1005B00076616C203D2025640A006D6B5F64656C7C
:1005C0006179203D2025640A006D6B5F7768656561
:1005D0006C5F74696D655F746F5F6D6178203D203D
:1005E00025640A006D6B5F776865656C5F6D617887
:1005F0005F7370656564203D2025640A006D6B5F44
:1006000074696D655F746F5F6D6178203D2025644E
:100610000A006D6B5F6D61785F7370656564203D86
:100620002025640A006D6B5F696E74657276616C7B
:10063000203D2025640A006D6B5F64656C61792044
:100640003D2025640A000A00257500363A207768A7
:1006500065656C5F74696D655F746F5F6D61783A35
:1006600020000A00257500353A20776865656C5FC3
:100670006D61785F73706565643A20000A002575C6
:1006800000343A2074696D655F746F5F6D61783A0C
:1006900020000A00257500333A206D61785F737081
:1006A0006565643A20000A00257500323A20696EBB
:1006B00074657276616C286D73293A20000A0025F2
:1006C0007500313A2064656C6179282A31306D7388
:1006D000293A20000A092D2056616C756573202D7A
:1006E0000A004D3E004D25643E20003F00736574B6
:1006F0002064656661756C740A00433E200077686B
:100700006572652064656C74613A20637572736FFD
:10071000723D25642C20776865656C3D25640A531D
:10072000656520687474703A2F2F656E2E77696B3B
:100730006970656469612E6F72672F77696B692FC5
:100740004D6F7573655F6B6579730A000A092D201B
:100750004D6F7573656B6579202D0A4553432F7175
:100760003A09717569740A313A0964656C617928CE
:100770002A31306D73290A323A09696E74657276CE
:10078000616C286D73290A333A096D61785F737063
:100790006565640A343A0974696D655F746F5F6DED
:1007A00061780A353A09776865656C5F6D61785FD5
:1007B00073706565640A363A09776865656C5F74BD
:1007C000696D655F746F5F6D61780A0A703A0970D0
:1007D00072696E742076616C7565730A643A097388
:1007E00065742064656661756C74730A75703A0986
:1007F0002B310A646F776E3A092D310A7067757074
:100800003A092B31300A7067646F776E3A092D31DF
:10081000300A0A7370656564203D2064656C7461FC
:10082000202A206D61785F7370656564202A202816
:10083000726570656174202F2074696D655F746FD7
:100840005F6D6178290A003F004D3E2000433E2045
:10085000004C25640A000A092D20436F6E736F6CEB
:1008600065202D0A4553432F713A09717569740A41
:100870006D3A096D6F7573656B65790A000A092D0C
:10088000204D61676963202D0A643A0964656275C9
:10089000670A783A096465627567206D61747269E8
:1008A000780A6B3A096465627567206B6579626FD7
:1008B0006172640A6D3A096465627567206D6F75CF
:1008C00073650A763A0976657273696F6E0A733AD0
:1008D000097374617475730A633A09636F6E736F99
:1008E0006C65206D6F64650A302D343A096C61794E
:1008F0006572302D34284631302D4634290A506136
:1009000075733A09626F6F746C6F616465720A0087
:100910003F0074696D65725F7265616433322829C6
:100920003A202530346C580A006B6579626F617229
:10093000645F69646C653A2025580A006B657962CA
:100940006F6172645F70726F746F636F6C3A2025B1
:10095000580A00686F73745F6B6579626F617264C7
:100960005F6C65647328293A2025580A000A092D0E
:1009700020537461747573202D0A004743433A2055
:10098000362E322E30204156522D4C4942433A20C9
:10099000322E302E30204156525F415243483A2089
:1009A000617672350A004F5054494F4E533A204CED
:1009B000554641204D4F5553454B455920455854B8
:1009C00052414B455920434F4E534F4C4520434FC6
:1009D0004D4D414E4420343039360A004255494C81
:1009E000443A20326534363437332D646972747971
:1009F000202830303A34353A34342044656320328C
:100A0000372032303136290A005649443A203078AE
:100A10004645454428742E6D2E6B2E29205049449E
:100A20003A2030783041444228414442206B657975
:100A3000626F61726420636F6E766572746572298D
:100A4000205645523A203078303130310A00444542
:100A500053433A20636F6E7665727420414442209E
:100A60006B6579626F61726420746F205553420A1E
:100A7000000A092D2056657273696F6E202D0A00D9
:100A80000A6D6F7573653A206F66660A000A6D6FAE
:100A90007573653A206F6E0A000A6B6579626F6143
:100AA00072643A206F66660A000A6B6579626F614C
:100AB00072643A206F6E0A000A6D61747269783A46
:100AC000206F66660A000A6D61747269783A206F59
:100AD0006E0A000A64656275673A206F6E0A000A42
:100AE00064656275673A206F66660A000A0A626F7B
:100AF0006F746C6F616465722E2E2E2000433E2051
:100B0000000011241FBECFEFDAE0DEBFCDBF04B678
:100B100003FE27C08091DC019091DD01A091DE01F0
:100B2000B091DF018730904BA740B04BD1F41092C9
:100B3000DC011092DD011092DE011092DF0114BE83
:100B400084B7877F84BF0FB6F894A8958091600022
:100B5000886180936000109260000FBEE0E0F8E3CF
:100B6000099511E0A0E0B1E0ECEFFFE402C00590D0
:100B70000D92A433B107D9F721E0A4E3B1E001C09D
:100B80001D92AC3DB207E1F70E94930C0C94FC2738
:100B90000C940000FF93EF93E0913401F091350144
:100BA000309709F00995EF91FF910895FC01859127
:100BB000803011F0EFDFFBCF0895FF27E0E230E255
:100BC00047FF0CC0419597FF09C0EDE26095709515
:100BD00080959095611D711D811D911D27FF02C09B
:100BE000219530E350E2AA27660F771F881F991FCF
:100BF000AA1FA41710F0A41B63955A95A9F7AA3051
:100C000008F0A95FA05DAF93F395611571058105AB
:100C1000910541F7ED3211F4EF93F395F21718F4C3
:100C20003F93F395FBCF8F91B5DFFA95E1F70895E8
:100C3000E991F9918591803021F0853219F0AADF90
:100C4000F9CF089520E0E89455915532C1F350331F
:100C500011F4689455915A3348F4505390F3220F8D
:100C6000022E220F220F200D250FF4CF0EF4219516
:100C700089919991533619F3533729F1533559F125
:100C8000BC0188279927E8945C3621F489919991D1
:100C900068945591543639F446EF7EF077FF0DC0D5
:100CA0008FEF9FEF0AC055374AE039F0583540E1E1
:100CB00021F0523642E009F00895FF93EF937DDF73
:100CC000EF91FF91B7CFFF93EF93FC0181918030BB
:100CD000B9F360DFFBCFFF93EF9368DFF1CFDF93D2
:100CE000CF93CDB7DEB72596A3DFCF91DF910895DF
:100CF000282F2770E82FE695E695E695EF70F0E04F
:100D0000E95CFE4F87FF0BC081E090E001C0880FD7
:100D10002A95EAF78095908189238083089581E060
:100D200090E0AC0102C0440F551F2A95E2F7808184
:100D3000842BF3CF0F931F93CF93DF93569A5E9A32
:100D40000E9484092FEF87EA91E62150804090406D
:100D5000E1F700C000008BEB92E09F938F930E941D
:100D60006F060F900F90C1E0D0E001EA12E063E05F
:100D70008C2F0E948809009771F09F938F93DF93C7
:100D8000CF931F930F930E946F060F900F900F90B9
:100D90000F900F900F909FEF29EF80E0915020402F
:100DA0008040E1F700C000002196C031D105F9F67E
:100DB00063E082E00E94880999278131910559F00A
:100DC00008F07BC08730910531F008F06CC00497C3
:100DD000029708F06FC081E080934C0163E087E0E8
:100DE0000E948809992721E08230910509F020E0CE
:100DF00020934D01029741F48EE892E09F938F93E8
:100E00000E946F060F900F9023E042E063E082E0C3
:100E10000E94FF0981E892E09F938F930E946F06E2
:100E20000F900F90C1E0D0E007E612E063E08C2F56
:100E30000E948809009771F09F938F93DF93CF935F
:100E40001F930F930E946F060F900F900F900F90BB
:100E50000F900F908FEF99EF20E08150904020404D
:100E6000E1F700C000002196C031D105F9F6E7E3B3
:100E7000F1E087E491E011928E179F07E1F70E945D
:100E8000C5110E942B098091BE0181608093BE0133
:100E900087E592E00E94D605569A5E98DF91CF9141
:100EA0001F910F9108958930910509F494CF0D9702
:100EB00009F491CF10924C0191CF8D31910509F435
:100EC0008ACF38F48431910509F485CF499791F799
:100ED00082CF843C910509F47ECF873C910509F4CB
:100EE0007ACF813C910531F776CFCF93DF938FE7AF
:100EF0009BEB0197F1F700C000000E94FB09EC0199
:100F0000009731F481E080933601DF91CF9108950D
:100F100097FD05C080914701816080934701D7FF0D
:100F200005C0809147018E7F809347012D2F332785
:100F30002F733327BE016F737727C6FF02C060543B
:100F40007109D6FF02C02054310940913601042EA8
:100F5000000C550B649FC001659F900D749F900D10
:100F6000112481386FEF960714F481E89FEF8038E1
:100F7000910514F08FE790E080934801249FC00111
:100F8000259F900D349F900D112481382FEF9207EB
:100F900014F481E89FEF8038910514F08FE790E01A
:100FA000809349018091BE0183FF60C081E492E09B
:100FB0000E94D605DF93CF938BE392E09F938F93AC
:100FC0000E946F0689E392E00E94D60588E292E0D3
:100FD0000E94D60580913601282F082E000C330B75
:100FE0003F938F9383E292E09F938F930E946F06CB
:100FF00081E292E00E94D605809147011F928F9373
:101000008CE192E09F938F930E946F068AE192E0B9
:101010000E94D60580914801282F082E000C330B22
:101020003F938F9387E192E09F938F930E946F0687
:1010300085E192E00E94D60580914901282F082E73
:10104000000C330B3F938F9382E192E09F938F9339
:101050000E946F068FE092E00E94D6058DB79EB782
:1010600044960FB6F8949EBF0FBE8DBF87E491E003
:101070000E9419129091360181E098300CF080E0C6
:10108000890F41CF1F93CF93DF93C0910001D0917F
:1010900001018FEF9FEF9093010180930001CF3FFB
:1010A0008FEFD80709F063C08FE79BEB0197F1F74B
:1010B00000C0000082E00E94F809EC01892B09F0D1
:1010C00056C080914D01882309F451C087E00E94E9
:1010D000F809009709F44BC09C012F773327223081
:1010E0003105E1F1A0F42115310591F121303105EF
:1010F00091F18CEF91E09F938F930E946F060F9078
:101100000F9011E1812FDF91CF911F91089523302E
:10111000310539F12F37310561F7292F33272F7723
:1011200033272130310509F445C0F0F02230310574
:1011300009F444C02330310509F444C089EE91E03C
:101140009F938F930E946F060F900F9010E1DACF5C
:1011500080788264E2CF80788A64DFCF8078896487
:10116000DCCF80788864D9CF9078EC01D26480910C
:10117000BE0181FF2BC0209759F185ED91E00E94BF
:10118000D605DF93CF9380ED91E09F938F930E94DC
:101190006F068EEC91E00E94D6050F900F900F9095
:1011A0000F90CF379FE7D907A9F48FE70E94780601
:1011B00011E0A8CF9078EC01DA64D9CF9078EC01F7
:1011C000D964D5CF9078EC01D864D1CF209749F776
:1011D00010E098CFCF3F8FEFD80711F48FEFE6CF15
:1011E0002D2F3327822F1C2F2F3F79F4DF93CF939E
:1011F00080EB91E09F938F930E946F060E949A0666
:101200000F900F900F900F907DCF90914C019923EC
:1012100049F0A9014F7755274233510579F42078D9
:10122000822F8A600E9478061F3F11F29C2F882728
:101230008F6F9093010180930001BACF4A3051051E
:1012400089F72078822F8263EDCFE82FF0E0E95C08
:10125000FE4F80810895682F609582E00C94310ADA
:10126000509A83E091E00197F1F700C00000509898
:101270009AEB9A95F1F700C00895509A8AEB8A95F7
:10128000F1F700C0509883E091E00197F1F700C0BA
:1012900000000895EF92FF920F931F93CF93DF9377
:1012A000C0E0D0E090E8E92EF12C082F10E0C70153
:1012B0000C2E02C0959587950A94E2F7802391231E
:1012C000892B69F00E943D092196C830D10579F734
:1012D000DF91CF911F910F91FF90EF9008950E94A1
:1012E0003009F2CF489B06C023E02A95F1F70000B1
:1012F0000197C1F70895489906C023E02A95F1F7B0
:1013000000000197C1F708955898509808950895DE
:10131000EF92FF920F931F93CF93DF93C82FD62F97
:10132000F894509A83EF9BE00197F1F700C000001A
:101330000E943D0990E1C99F900111248D2F8C607E
:10134000822B0E944A090E94300984EF91E00E949A
:101350007B09892B59F47894C2EEDFEFCE01DF913F
:10136000CF911F910F91FF90EF90089584EF91E03E
:101370000E947209EC01892B11F47894EFCF11E1EE
:10138000C0E0D0E002E882E890E00E947B097C01A6
:10139000882339F199270E947209882311F1CC0F13
:1013A000DD1F9E2D981B802F8E19891768F4C16050
:1013B000115049F78FE591E00E947B09892B51F488
:1013C0007894CBEEDFEFCACF113191F77894CCEE61
:1013D000DFEFC4CF8BE590E00E947209892B81F783
:1013E000CCCF7894C12FD0E0D195C195D109B6CF9B
:1013F00060E00C94880960E083E00C9488090F9306
:101400001F93CF93DF93C82FD62F042F122FF8945A
:10141000509A83EF9BE00197F1F700C000000E9413
:101420003D09D86020E1C29FC00111248D2B0E948C
:101430004A090E9430098FE193E00197F1F700C05B
:1014400000000E943D09802F0E944A09812F0E94BE
:101450004A090E9430097894DF91CF911F910F9132
:101460000895262F277040E062E00C94FF098091D8
:101470005A0108959FB7F894109251019FBF90911F
:10148000D301943009F049C02091E9002F70909168
:10149000EC0090FD30C090E0922B24E02093E90016
:1014A0002091EB0020FF36C02091EE0027FF32C0D4
:1014B00020914E01222321F02091E80025FF2AC02F
:1014C00010924E0126E03091E80035FF16C080935F
:1014D000F1008091E80085FD29C08091E80080FF3F
:1014E000FCCF8091E8008E778093E8009F70909306
:1014F000E90080E0089590E8CFCF3091D3013430F7
:1015000049F43091EB0035FD05C0215041F481E0F4
:1015100080934E019F709093E9008FEF0895EFE95B
:10152000FFE03197F1F700C00000CDCF8FB7F894FE
:1015300021E0209351018FBFD9CFCF93DF9300D00B
:101540001F92CDB7DEB79C018091D301843019F58D
:1015500093E099833B832A839093E9008FEF9091E6
:10156000E800815095FD06C095ED9A95F1F70000D1
:101570008111F5CF8091E80085FF0DC040E050E07B
:1015800063E070E0CE0101960E94520D8091E80068
:101590008E778093E8000F900F900F90DF91CF919E
:1015A0000895CF93DF9300D01F92CDB7DEB720917F
:1015B000D301243021F522E029839B838A8383E0B1
:1015C0008093E9008FEF9091E800815095FD06C06F
:1015D00095ED9A95F1F700008111F5CF8091E80023
:1015E00085FF0DC040E050E063E070E0CE01019661
:1015F0000E94520D8091E8008E778093E8000F9052
:101600000F900F90DF91CF9108959C018091D301AD
:101610008430F9F482E08093E9009FEF8091E80044
:10162000915085FD06C085ED8A95F1F70000911176
:10163000F5CF8091E80085FF0CC040E050E065E008
:1016400070E0C9010E94520D8091E8008E7780936E
:10165000E8000895CF93DF93EC018091D3018430AB
:1016600039F581E08093E9008FEF9091E800815097
:1016700095FD06C095ED9A95F1F700008111F5CF23
:101680008091E80085FF14C040E050E068E070E021
:10169000CE010E94520D8091E8008E778093E80081
:1016A00088E0FE01A2E5B1E001900D928A95E1F794
:1016B000DF91CF91089587EF92E00E94D605809147
:1016C000D201811109C00E94DF0E0E943C0F80915F
:1016D000E20084608093E200089583EF92E00E942C
:1016E000D6051092D2010895089520914F012F5FE1
:1016F000822F62E30E94C227992319F020934F01A1
:10170000089510924F01809151018823E9F0809152
:10171000D3018430B9F49091E9009F708091EC007E
:1017200080FD13C080E0892B94E09093E9009091B4
:10173000EB0090FF04C09091EE0097FD0AC08F70FF
:101740008093E90010925101089580E8ECCF109247
:10175000F1009091E80095FDFACF9091E80090FF9C
:10176000EECF9091E8009E779093E800E8CF42E0BA
:1017700061EC81E00E945C0E42E061EC82E00E943C
:101780005C0E42E061EC83E00E945C0E42E261ECA0
:1017900084E00C945C0E8091D501833009F452C032
:1017A00030F4813059F1823009F48EC008958A30C6
:1017B00009F47AC08B3009F460C0893009F041C067
:1017C0008091D4018132E9F58091D8019091D901BD
:1017D000892BB9F58091E800877F8093E80080919C
:1017E000E80082FF2AC08091F10080935A01809125
:1017F000E8008B778093E8000C94910E8091D401DF
:10180000813AF9F48091E800877F8093E800809125
:10181000D8019091D901892B61F468E082E591E0CB
:1018200070E00E94A10D8091E8008B778093E80022
:10183000089560E080E090E0F3CF8091D3018111C2
:10184000CECF08958091D401813AD9F78091D80103
:101850009091D901892BA9F78091E800877F809327
:10186000E8008091E80080FFFCCF80910C0180931C
:10187000F1008091E8008E77BDCF8091D401813254
:1018800001F78091D8019091D901892BD1F68091EF
:10189000E800877F8093E8000E94910E8091D60136
:1018A00080930C010C944F188091D401813249F639
:1018B0008091E800877F8093E8000E94910E8091DC
:1018C000D70180935B0108958091D401813A09F09A
:1018D000B8CF8091E800877F8093E8008091E8008E
:1018E00080FFFCCF80915B01C2CF08950C94750CF2
:1018F00080915A018093500110925A0180E00E9419
:101900002B090E9445130C944F180C94780C0E94DC
:101910005F1E8091D101882329F00E94881E8111C9
:101920000C943C0D089584B7877F84BF0FB6F8945C
:10193000A89580916000886180936000109260009B
:101940000FBE90E080E80FB6F8948093610090930A
:1019500061000FBE8AE39AE00E942E1E8BEE92E099
:101960000E94D6050E94760C0E947E120E94DF0E15
:101970000E943C0F8091E20084608093E2007894A2
:101980008091D3018430E1F78AED92E00E94D60580
:101990000E94801282E091E00E94C01189EC92E0E6
:1019A0000E94D6050E94750C8091D301853019F0F4
:1019B0000E948612F9CF0E94870CF6CF0E949C1ECF
:1019C0008091500180935A0108950C94DE0C292FC8
:1019D00033272330310579F158F421303105F1F006
:1019E0002230310519F180E090E020E030E01AC0AB
:1019F0002132310599F122323105A9F7643098F787
:101A000070E0FB01EE0FFF1FE75EFE4F208131818A
:101A10006B5E7E4FFB01808190E004C082E190E02C
:101A200023EB33E0FA0131832083089584E790E0CB
:101A30002FE333E0F7CF99278130910561F028F04B
:101A4000029789F6EBEFF2E002C0EBE3F3E084915A
:101A500090E09F01E7CFEBE2F3E0F9CF643008F0CC
:101A6000C2CFE62FF0E0EE0FFF1FEF5DFE4F2081AB
:101A7000318189E090E0D6CF80E189BD82E189BDE6
:101A800009B400FEFDCF8091D8008F7D8093D800EF
:101A90008091E00082608093E0008091E00081FD11
:101AA000FCCF0895AF92BF92DF92EF92FF920F9317
:101AB0001F93CF93DF93EC018B017A010E94B00E4C
:101AC000D82E811124C0E114F10439F0F70180818E
:101AD0009181081B190BC80FD91FA12CB12C01151E
:101AE0001105A9F08091E80085FD22C08091E800F1
:101AF0008E778093E800E114F104A1F0F701808172
:101B00009181A80EB91EB182A08285E0D82E8D2DBC
:101B1000DF91CF911F910F91FF90EF90DF90BF90D9
:101B2000AF9008950E94B00E8823C9F2D82EEFCF4F
:101B300089918093F10001501109FFEFAF1ABF0A9C
:101B4000CECF2091DA013091DB0126173707A8F0BC
:101B50006115710529F42091E8002E772093E800A3
:101B6000FC0120E06115710551F4211108C080913C
:101B7000E80082FF33C080E00895B901F1CF809181
:101B8000D3018823B9F18530B9F18091E80083FD54
:101B90002FC08091E80082FDEACF8091E80080FFAD
:101BA000E1CF2091F3008091F20090E0922B61153B
:101BB000710519F08830910550F021E0089709F07F
:101BC00020E08091E8008E778093E800CBCF2191D0
:101BD0002093F100615071090196E9CF8091D30102
:101BE000882341F0853041F08091E80083FFBFCF2A
:101BF00081E0089582E0089583E008952091DA015C
:101C00003091DB0126173707A8F06115710529F41B
:101C10002091E8002E772093E800FC0120E0611578
:101C2000710551F4211108C08091E80082FF34C091
:101C300080E00895B901F1CF8091D3018823C1F1EB
:101C40008530C1F18091E80083FD30C08091E800CB
:101C500082FDEACF8091E80080FFE1CF2091F30080
:101C60008091F20090E0922B6115710519F0883097
:101C7000910550F021E0089709F020E08091E800FC
:101C80008E778093E800CBCF24912093F10031969A
:101C9000615071090196E8CF8091D301882341F00A
:101CA000853041F08091E80083FFBECF81E0089548
:101CB00082E0089583E00895982F973028F08F7080
:101CC0008093E90081E008959093E900981751F01E
:101CD0007091EC002091ED005091F00021FD06C0C4
:101CE0009F5FEBCF242F762F50E0F8CF3091EB00A1
:101CF0003E7F3093EB003091ED003D7F3093ED005F
:101D00003091EB0031603093EB007093EC00209346
:101D1000ED005093F0002091EE0027FDE1CF80E030
:101D200008958091D40187FF13C08091E80082FF5D
:101D300006C08091E8008B778093E80004C0809112
:101D4000D3018111F2CF08958091D3018823D9F373
:101D50008091E80080FFF8CF8091E8008E77ECCF8B
:101D60002091E4003091E50085E69091EC0090FD33
:101D700020C09091E80092FD20C09091D30199235A
:101D800091F0953091F09091EB0095FD10C040914D
:101D9000E4005091E5004217530739F381509A014E
:101DA00021F784E0089582E0089583E0089581E0BA
:101DB00008959091E80090FFE0CF80E008950E94A0
:101DC0004D0F0E94550FE0EEF0E08081816080832E
:101DD000E8EDF0E080818F77808319BCA7EDB0E05B
:101DE0008C918E7F8C9380818F7E80831092D20124
:101DF00008950F931F93CF93DF930E944D0F0E947E
:101E0000550FC8EDD0E088818F77888388818068FE
:101E1000888388818F7D888319BC1092D3011092AA
:101E2000CF011092D1011092D00100EE10E0F80124
:101E300080818B7F808388818160888342E060E03D
:101E400080E00E945C0EE1EEF0E080818E7F808376
:101E5000E2EEF0E080818160808380818860808311
:101E6000F80180818E7F8083888180618883DF9103
:101E7000CF911F910F910895E8EDF0E080818F7E62
:101E80008083E7EDF0E080818160808384E082BF21
:101E900081E08093D2010C94F90EE8EDF0E08081AE
:101EA0008E7F80831092E20008951092DA001092E3
:101EB000E10008951F920F920FB60F9211242F93F5
:101EC0003F934F935F936F937F938F939F93AF93C2
:101ED000BF93EF93FF938091E10082FF0BC080914D
:101EE000E20082FF07C08091E1008B7F8093E100D8
:101EF0000E94750B8091DA0080FF19C08091D80094
:101F000080FF15C08091DA008E7F8093DA00809187
:101F1000D90080FF94C080E189BD82E189BD09B408
:101F200000FEFDCF81E08093D3010E945B0B809186
:101F3000E10080FF19C08091E20080FF15C0809110
:101F4000E2008E7F8093E2008091E20080618093C6
:101F5000E2008091D80080628093D80019BC85E0AF
:101F60008093D3010E94850C8091E10084FF29C0F9
:101F70008091E20084FF25C080E189BD82E189BDB6
:101F800009B400FEFDCF8091D8008F7D8093D800EA
:101F90008091E1008F7E8093E1008091E2008F7E4E
:101FA0008093E2008091E20081608093E200809162
:101FB000CF01882309F449C084E08093D3010E94B3
:101FC000E50C8091E10083FF29C08091E20083FF4E
:101FD00025C08091E100877F8093E10082E08093BB
:101FE000D3011092CF018091E1008E7F8093E100B8
:101FF0008091E2008E7F8093E2008091E200806118
:102000008093E20042E060E080E00E945C0E8091FC
:10201000F00088608093F0000E94740BFF91EF91B4
:10202000BF91AF919F918F917F916F915F914F91F0
:102030003F912F910F900FBE0F901F90189519BCD4
:102040001092D3010E946D0B72CF8091E30087FD47
:1020500002C081E0B2CF83E0B0CF1F920F920FB6E3
:102060000F9211242F933F934F935F936F937F931E
:102070008F939F93AF93BF93CF93EF93FF93C091B1
:10208000E900CF708091EC001092E9008091F0009F
:10209000877F8093F00078940E9469101092E90085
:1020A0008091F00088608093F000C093E900FF9178
:1020B000EF91CF91BF91AF919F918F917F916F9150
:1020C0005F914F913F912F910F900FBE0F901F90F6
:1020D00018951F93CF93DF93CDB7DEB7AA970FB6AE
:1020E000F894DEBF0FBECDBFE4EDF1E08091F100CA
:1020F000819321E0EC3DF207C9F70E94CB0B809160
:10210000E80083FF44C08091D4019091D501492F0C
:1021100050E04A30510508F03AC0FA01EE56FF4E41
:102120000C94E2279C10C010C710C010C7101B11E0
:102130003E11C7109311A011803879F0823839F51B
:102140008091D8018F708093E9008091EB0085FB2E
:10215000882780F91092E90006C08091D001909103
:10216000D101911182609091E800977F9093E800EF
:102170008093F1001092F1008091E8008E772DC0DD
:10218000282F2D7F21F48823D1F0823059F18091BE
:10219000E80083FF0AC08091E800877F8093E80011
:1021A0008091EB0080628093EB00AA960FB6F894C2
:1021B000DEBF0FBECDBFDF91CF911F9108958091FB
:1021C000D601813021F7933009F080E08093D1016E
:1021D0001092E9008091E800877F8093E8000E94D8
:1021E000910ED5CF8091D6018111F2CF8091D80187
:1021F0008F7069F28093E9002091EB0020FFE8CF17
:10220000933031F48091EB0080628093EB00E0CF5B
:102210009091EB0090619093EB0021E030E001C0E1
:10222000220F8A95EAF72093EA001092EA00809143
:10223000EB008860EACF8111AACF1091D6011F77F9
:102240008091E3008078812B8093E3008091E80007
:10225000877F8093E8000E94910E8091E80080FFC4
:10226000FCCF8091E30080688093E300111104C0EB
:1022700082E08093D3018BCF83E0FBCF8058823004
:1022800008F085CF8091D6019091D7018C3D23E055
:102290009207A1F583E08A838AE289834FB7F89495
:1022A000DE01139620E03EE051E2E32FF0E0509390
:1022B0005700E49120FF03C0E295EF703F5FEF709D
:1022C0008E2F90E0EA30C0F0C7968D939D932F5FDC
:1022D000243159F74FBF8091E800877F8093E80051
:1022E0006AE270E0CE0101960E94A10D8091E800A3
:1022F0008B778093E8004BCFC096E7CFAE014F5F5E
:102300005F4F6091D8010E94E70CBC01892B09F452
:102310003ECF9091E800977F9093E80089819A8161
:102320000E94FE0DE3CF803809F031CF8091E800A4
:10233000877F8093E8008091CF018093F1001CCFCC
:10234000811125CF9091D601923008F020CF809155
:10235000E800877F8093E8009093CF010E94910E60
:102360008091CF01882311F084E005C08091E300C3
:1023700087FDFACF81E08093D3010E94B70B07CF8E
:1023800090936101809360010895E0916001F09164
:102390006101309721F00190F081E02D099480E0F7
:1023A0000895EF92FF921F93CF93DF93F82E192F8A
:1023B000E0916001F09161013097A9F10280F38111
:1023C000E02D09958091BE0182FF2DC080FF04C0E1
:1023D00080ED94E00E94D605CF2DD12F18E08AEC35
:1023E000E82E84E0F82E8091BE0180FF0BC088812A
:1023F0001F928F93FF92EF920E946F060F900F90A3
:102400000F900F90115021961111EDCF8091BE01C8
:1024100080FF09C088EC94E0DF91CF911F91FF907D
:10242000EF900C94D605DF91CF911F91FF90EF9024
:102430000895E0916001F0916101309721F00480EE
:10244000F581E02D09940895CF93DF93EC018091FD
:102450005E0190915F018C179D0701F1D0935F01A0
:10246000C0935E01E0916001F09161013097B1F09D
:102470000680F781E02DCE0109958091BE0185701F
:10248000853061F4DF93CF938AEB94E09F938F9331
:102490000E946F060F900F900F900F90DF91CF91D9
:1024A0000895CF93DF93EC0180915C0190915D01E1
:1024B0008C179D0701F1D0935D01C0935C01E09101
:1024C0006001F09161013097B1F00084F185E02D59
:1024D000CE0109958091BE018570853061F4DF934E
:1024E000CF938AEA94E09F938F930E946F060F9098
:1024F0000F900F900F90DF91CF9108950C94461399
:102500000E94C91E0E949A060C948709BF92CF921E
:10251000DF92EF92FF920F931F93CF93DF9300D040
:1025200000D01F92CDB7DEB70E94420883E6C82EC6
:1025300081E0D82E00E010E0B02E802F0E94250907
:10254000E82EF601F1906F018F1116C00F5F1F4F3B
:102550000031110589F78FEF89838A831B820E94DE
:10256000D21E8160782F9D838C8349815A816B8133
:102570008D810E9491133FC08091BE0181FD0E9418
:102580005B1380E090E0FE242F2D30E0482FB9014E
:10259000082E02C0759567950A94E2F760FF5EC049
:1025A0008983BA8281E090E06C0102C0CC0CDD1C12
:1025B0004A95E2F72E2D30E02C213D21232B09F402
:1025C00080E08B830E94D21E8160782F9D838C8354
:1025D00049815A816B818D810E94911349815A8171
:1025E0006B817C818D810E944C1EF801ED59FE4F5C
:1025F00080818C2580830E944B1E0E9437220E947E
:1026000075070E94C51190916201891769F10E94B6
:10261000C511809362019091BE019570953061F46F
:102620001F928F938BED94E09F938F930E946F0680
:102630000F900F900F900F90809162010F900F906C
:102640000F900F900F90DF91CF911F910F91FF90FE
:10265000EF90DF90CF90BF900C945D1E0196883074
:10266000910509F093CF72CF0F900F900F900F90BC
:102670000F90DF91CF911F910F91FF90EF90DF901E
:10268000CF90BF9008950C942B0908950895CF938F
:10269000C62F0E94250921E030E002C0220F331F1F
:1026A000CA95E2F790E02823392381E0232B09F42F
:1026B00080E0CF910895EF92FF920F931F93CF93F5
:1026C000DF9384EF94E00E94D605C0E0D0E089E279
:1026D000E82E81E0F82E06EE14E08C2F0E942509EA
:1026E0000E94331EFF92EF921F928F93DF93CF933E
:1026F0001F930F930E946F0621968DB79EB7089681
:102700000FB6F8949EBF0FBE8DBFC031D10529F71B
:10271000DF91CF911F910F91FF90EF900895089551
:102720000895CF93DF93CDB7DEB72B970FB6F8940C
:10273000DEBF0FBECDBF942F4F83252F58876987EB
:102740007A878B874A855B85452B39F02F3F19F4B3
:1027500081E09F3F19F080E001C081E080FD07C06B
:102760004F81588569857A858B850E944C1EDE01D4
:10277000119686E0FD0111928A95E9F785E0FE0148
:10278000379601900D928A95E1F749815A816B81C4
:102790007C818D819E810E94021B2B960FB6F8943E
:1027A000DEBF0FBECDBFDF91CF910895CF93C82F6D
:1027B000882309F4FBC08238C1F40E94C51181FD51
:1027C000F5C089E30E948E1D0E94081E2FEF81EE46
:1027D00094E0215080409040E1F700C0000089E380
:1027E0000E94AB1DCF910C94081E8338A1F40E9467
:1027F000C51180FDDBC083E50E948E1D0E94081E6E
:102800002FEF81EE94E0215080409040E1F700C02E
:10281000000083E5E5CF8438A1F40E94C51182FD54
:10282000C5C087E40E948E1D0E94081E2FEF81EE16
:1028300094E0215080409040E1F700C0000087E420
:10284000CFCF8CEF8C0F813A48F48C2F0E94482513
:102850008111ACC08C2F0E948E1DC4CF80E28C0FE2
:10286000883048F4C77081E001C0880FCA95EAF744
:102870000E94CD1DB7CF8BE58C0F833078F4C53A1D
:1028800039F0C63A41F083E890E0CF910C942412DD
:1028900081E890E0FACF82E890E0F7CF88E58C0FEE
:1028A000853108F083C0C83A09F441C0C93A09F437
:1028B00041C0CA3A09F441C0CB3A09F441C0CC3A0C
:1028C00009F441C0CD3A09F441C0CE3A09F441C0FF
:1028D000CF3A09F441C0C13B09F441C0C03B09F4FF
:1028E00041C0C23B09F441C0C33B09F441C0C43BF1
:1028F00009F441C0C53B09F441C0C63B09F441C0DD
:10290000C73B09F441C0C83B09F441C0C93B09F4C5
:1029100041C0CA3B09F441C0CB3B09F441C0CC3BA8
:1029200009F441C080E090E0CF910C94511282EE06
:1029300090E0FACF89EE90E0F7CF8AEE90E0F4CF06
:1029400085EB90E0F1CF86EB90E0EECF83EB90E06B
:10295000EBCF84EB90E0E8CF87EB90E0E5CF8CEC19
:1029600090E0E2CF8DEC90E0DFCF83E891E0DCCF28
:102970008AE891E0D9CF82E991E0D6CF84E991E06D
:10298000D3CF81E292E0D0CF83E292E0CDCF84E258
:1029900092E0CACF85E292E0C7CF86E292E0C4CF50
:1029A00087E292E0C1CF8AE292E0BECFCF91089554
:1029B000882309F466C08238B9F40E94C51181FFEA
:1029C00060C089E30E948E1D0E94081E2FEF81EED9
:1029D00094E0215080409040E1F700C0000089E37E
:1029E0000E94AB1D0C94081E8338A1F40E94C511EF
:1029F00080FF47C083E50E948E1D0E94081E2FEFB6
:102A000081EE94E0215080409040E1F700C000004A
:102A100083E5E6CF8438A1F40E94C51182FF31C05E
:102A200087E40E948E1D0E94081E2FEF81EE94E025
:102A3000215080409040E1F700C0000087E4D0CFF3
:102A40009CEF980F913A60F290E2980F983050F412
:102A5000877091E001C0990F8A95EAF7892F0E944B
:102A6000D31DC0CF9BE5980F933020F480E090E019
:102A70000C942412885A853120F480E090E00C9464
:102A800051120895882321F00E94CD1D0C94081E38
:102A90000895882321F00E94D31D0C94081E0895E8
:102AA000CF92DF92EF92FF920F931F93CF93DF931A
:102AB00000D000D01F92CDB7DEB76C0185E0F601E3
:102AC000DE01119601900D928A95E1F7F6012081C1
:102AD000918143815481452B39F09F3F19F481E066
:102AE0002F3F19F080E001C081E080FDB9C0F60100
:102AF000F280E580E2948FE0E82229839A8389813D
:102B00009A810E944C1D8C010E944B1D0E945D1CED
:102B1000E12FE295EF708E2F90E0FC01EE56FA4E19
:102B20000C94E227A215A215DA15DA155F16921693
:102B300030163016A91630168D178D171518301649
:102B400030162A18812F807F1F70882311F012956C
:102B5000107FFF20B9F0112329F0812F0E94E11D81
:102B60000E94081E802F0F900F900F900F900F90D3
:102B7000DF91CF911F910F91FF90EF90DF90CF9059
:102B80000C94D613802F0E94D814112309F468C026
:102B9000812F0E94E71D0F900F900F900F900F90C4
:102BA000DF91CF911F910F91FF90EF90DF90CF9029
:102BB0000C94081E812F807F1F70803211F01295B7
:102BC000107F002379F0013009F458C0FF2009F488
:102BD00064C0EE2059F0F601858180FFC3CF8F706D
:102BE000858304C0FF2029F1E11010C0812F0F90D0
:102BF0000F900F900F900F90DF91CF911F910F9139
:102C0000FF90EF90DF90CF900C944215F1E0812F70
:102C1000EF12EDCF0F900F900F900F900F90DF916C
:102C2000CF911F910F91FF90EF90DF90CF900C9478
:102C3000F21DE11012C00E94F51D812F0F900F9020
:102C40000F900F900F90DF91CF911F910F91FF90F8
:102C5000EF90DF90CF900C94491581E0E812EBCF14
:102C60000F900F900F900F900F90DF91CF911F91C9
:102C70000F91FF90EF90DF90CF900895FF2049F0E3
:102C8000E5E0EE1568F30E94CA1D812309F4AECF7A
:102C9000D4CFF4E0FE1520F3D0CFEE2071F2802FD8
:102CA0000F900F900F900F900F90DF91CF911F9189
:102CB0000F91FF90EF90DF90CF900C94D814812F5C
:102CC000869586958370A9F0813051F6FF2039F101
:102CD000C80193700F900F900F900F900F90DF919D
:102CE000CF911F910F91FF90EF90DF90CF900C94B8
:102CF0005112FF2089F0C80193700F900F900F9030
:102D00000F900F90DF91CF911F910F91FF90EF9057
:102D1000DF90CF900C94241280E090E0EECF80E022
:102D200090E0D8CF802FFF2089F00E94BE200F9026
:102D30000F900F900F900F90DF91CF911F910F91F7
:102D4000FF90EF90DF90CF900C94AA210E94262153
:102D5000EECF812F837009F06CC0F11081CF202F4E
:102D6000229526952770220F220F602F6F70C62E96
:102D7000D12CE12CF12C022E04C0CC0CDD1CEE1C5D
:102D8000FF1C0A94D2F704FF2AC06FE070E080E0D5
:102D900090E004C0660F771F881F991F2A95D2F70D
:102DA00060957095809590951695169513701230D4
:102DB000D1F060F56C297D298E299F29113051F1C0
:102DC0000F900F900F900F900F90DF91CF911F9168
:102DD0000F91FF90EF90DF90CF900C94721C60E009
:102DE00070E0CB01E1CF6C297D298E299F290F90BE
:102DF0000F900F900F900F90DF91CF911F910F9137
:102E0000FF90EF90DF90CF900C94841C0E94721C76
:102E1000C701B6010F900F900F900F900F90DF91A8
:102E2000CF911F910F91FF90EF90DF90CF900C9476
:102E3000601CFF2009F445C0812F8170882309F4AC
:102E40000FCF202F229526952770220F220F602F5B
:102E50006F70C62ED12CE12CF12C022E04C0CC0CAC
:102E6000DD1CEE1CFF1C0A94D2F704FF2CC06FE09F
:102E700070E080E090E004C0660F771F881F991F04
:102E80002A95D2F760957095809590951695169530
:102E900013701230E1F070F56C297D298E299F297D
:102EA000113061F10F900F900F900F900F90DF9104
:102EB000CF911F910F91FF90EF90DF90CF900C94E6
:102EC000271D8695BBCF60E070E0CB01DFCF6C297A
:102ED0007D298E299F290F900F900F900F900F90B2
:102EE000DF91CF911F910F91FF90EF90DF90CF90E6
:102EF0000C94391D0E94271DC701B6010F900F9039
:102F00000F900F900F90DF91CF911F910F91FF9035
:102F1000EF90DF90CF900C94151D003F91F148F495
:102F2000003E10F5FF2009F47DC0EE2009F447C0F3
:102F300019CE023F09F454C008F43FC0033F91F793
:102F4000FF2009F460C0812F8F710F900F900F90B8
:102F50000F900F90DF91CF911F910F91FF90EF9005
:102F6000DF90CF900C949B1C0F70812F8F71FF20EE
:102F700021F00E94B01C802F3ACE0E94D11C802FDD
:102F80005DCEFF20A9F0F4E0FE1508F469CE812F94
:102F90008F710F900F900F900F900F90DF91CF9146
:102FA0001F910F91FF90EF90DF90CF900C94F41C45
:102FB00085E08E1508F454CEEACFFF2099F0812FDA
:102FC0008F710F900F900F900F900F90DF91CF9116
:102FD0001F910F91FF90EF90DF90CF900C94B01C59
:102FE000FF2069F3812F8F710F900F900F900F903A
:102FF0000F90DF91CF911F910F91FF90EF90DF9095
:10300000CF900C94D11C0F900F900F900F900F90B9
:10301000DF91CF911F910F91FF90EF90DF90CF90B4
:103020000C94961CEE20F1F23ACE412F4F70602F97
:10303000C6010E945B1F0F900F900F900F900F9092
:10304000DF91CF911F910F91FF90EF90DF90CF9084
:103050000C94B01B412F4F70602FC6010F900F9042
:103060000F900F900F90DF91CF911F910F91FF90D4
:10307000EF90DF90CF900C945E1F0E94EF1D0E9496
:10308000BC1D0E94081E0E94DA220E94AA2180E034
:1030900090E00E94241280E090E00C9451120E9473
:1030A000DE1D0C943D180E944C1D292F22952F7077
:1030B0002C3058F42A3018F42250223050F4803E3C
:1030C00010F0803F31F481E008952C3021F02F3052
:1030D00011F080E0089593FB882780F90895CF933D
:1030E000DF9300D000D01F92CDB7DEB70F900F90C6
:1030F0000F900F900F90DF91CF910895CF93DF93B2
:1031000000D000D000D0CDB7DEB726960FB6F89429
:10311000DEBF0FBECDBFDF91CF9108951F93CF9338
:10312000DF93C091730116E080917401C81304C04D
:10313000DF91CF911F910895D0E01C9FF0011D9F5A
:10314000F00D1124EB58FE4F408151816281738153
:10315000848195810E947E182196C770E5CF4091A9
:10316000A5015091A6016091A7017091A8018091DD
:10317000A9019091AA010C947E181F93CF93DF931D
:103180008091AA0182958F70D1F48091A701882344
:10319000B1F080917301D0917401B091A501C091FB
:1031A000A6014091A8015091A901A1E0BF3F09F0FB
:1031B000A0E0BA016095709516E08D1304C0DF9110
:1031C000CF911F91089541155105D9F1CF3FD9F104
:1031D00020E090E020FD3CC0189FF001199FF00D09
:1031E0001124EB58FE4F21812C1332C020812B1368
:1031F0002FC0228121112CC023813481241735074F
:1032000020F1241B350B283C310510F52091AA0133
:103210002F7020612093AA0126E0289FF001299FAA
:10322000F00D1124E658FE4F80818F7080618083FD
:1032300085EA91E00E945015DF91CF911F910C9487
:103240008E1821E0C6CF2A2FC4CF260F371FDBCF21
:1032500001968770B2CFAF92BF92CF92DF92EF927A
:10326000FF920F931F93CF93DF93CDB7DEB7619794
:103270000FB6F894DEBF0FBECDBF8C0185E0F8011C
:10328000DE011D9601900D928A95E1F7D8014C91CF
:1032900011965C9111971296EC903091A501609176
:1032A000A6018091A8019091A901009739F06F3F84
:1032B00019F421E03F3F19F020E001C021E0B22FD6
:1032C000B170BB2E20FD90C1F801C380D480A090C6
:1032D000A701AA2009F432C12091AA01C816D90673
:1032E00010F1D601A81BB90BCD01FF24F394883C43
:1032F0009105F0F0F12C207F09F0E9C07C2DD98AEE
:10330000C88A6E2D89890E946F1885EA91E00E9413
:103310005015E5EAF1E086E0DF011D928A95E9F7B4
:103320000E94AF181EC0809590958C0D9D1DDDCF1D
:10333000822F807F09F084C0651325C0341323C019
:10334000FE2CE11020C02F7020612093AA010E9462
:10335000AF1885EA91E00E9450158091AA01F8010A
:1033600085838F2D61960FB6F894DEBF0FBECDBF5B
:10337000DF91CF911F910F91FF90EF90DF90CF9051
:10338000BF90AF900895CD2839F05F3F19F481E0E8
:103390004F3F19F080E001C081E080FD24C081E052
:1033A0008E25F82FF170FF2E80FF3FC080917301B2
:1033B0002091740136E0821318C04D875E878D8599
:1033C0009E850E944C1D292F22952F70223008F1D6
:1033D000243030F59F7009F1D80115969C91907FAB
:1033E000E1F4FB2CBECF80E0DCCF90E0389FF00111
:1033F000399FF00D1124EB58FE4F6181561306C022
:103400006081641303C06281E6120FC00196877069
:10341000D2CF9F7011F0882321F3805E883008F3AB
:10342000C8010E945015BF2CDCCFFE2CEE2009F401
:1034300098CF8091AA0181608093AA01F12C91CF4D
:10344000651314C0341312C0E11010C08091AA019A
:10345000F8018583C8010E94501586E0F801A5EAAD
:10346000B1E001900D928A95E1F75ACF4D875E87C2
:103470008D859E850E945318882309F4BFC0EE20D5
:1034800009F4BCC02091AA01822F82958F7090E030
:10349000029774F08091A5019091A60198878F837F
:1034A0001986DB86CA862C87CE0107960E945015A6
:1034B00086E0F801A5EAB1E001900D928A95E1F766
:1034C0000E94BD180E94AF18FF24F3944ACF6513E1
:1034D00014C0341312C0E11010C08091AA01F80189
:1034E0008583C8010E94501586E0E5EAF1E0DF011E
:1034F0001D928A95E9F7FA2C34CF4D875E878D852A
:103500009E850E945318882309F478C0EE2009F4A0
:1035100075C02091AA01822F82958F7090E002974A
:103520003CF28091A5019091A6019A8389831B8228
:10353000DD82CC822E83CE010196B8CFC816D90683
:1035400080F0F601E81BF90BCF01883C910570F083
:10355000F12C7C2DD98AC88A6E2D89890E946F181A
:10356000D8CE809590958C0D9D1DEFCFFE2CEE2032
:1035700009F444C0651327C0341325C08091AA0103
:1035800080FD18C0982F92959F70292F30E021154B
:10359000310581F0D80115968C9315972F303105A0
:1035A00009F458CF9F5F9295907F8F70892B159665
:1035B0008C9350CF86E0F801A5EAB1E001900D921E
:1035C0008A95E1F7CECE4D875E878D859E850E94D8
:1035D000531881116DCF8091AA0181608093AA0157
:1035E000C8010E945015BDCEEE2041F04D875E8788
:1035F0008D859E850E94531881115ACFC8010E9463
:10360000501562CF1F93CF93DF93CDB7DEB72C97C2
:103610000FB6F894DEBF0FBECDBF4F8358876987C2
:103620007A878B879C87CE0107960E942B19882367
:1036300049F19F8188852A853B85232B39F08F3F6F
:1036400019F481E09F3F19F080E001C081E080FD26
:1036500008C04F81588569857A858B859C850E9435
:103660007E1816E08091730190917401891348C00F
:103670002C960FB6F894DEBF0FBECDBFDF91CF9171
:103680001F91089586E0FE013796DE0111960190A4
:103690000D928A95E1F7FF81E8856A857B85611542
:1036A000710539F0EF3F19F481E0FF3F19F080E038
:1036B00001C081E080FDD5CF2091740130E0C901C7
:1036C0000196877099274091730150E08417950700
:1036D000C9F1F983EA837D836C8396E0929FD001E0
:1036E000939FB00D1124AB58BE4FFE01319601904F
:1036F0000D929A95E1F7809374010E948E18B1CFD4
:10370000819FC00111248B589E4F0E942B19882342
:1037100009F4AECFE09173011E9FF0011124EB5824
:10372000FE4F4081518162817381848195810E9425
:103730007E188091730190E001968770992780939D
:10374000730190CF0E944F18109274011092730170
:10375000E5EAF1E086E0DF011D928A95E9F788CF7E
:10376000DF92EF92FF920F931F93CF93DF938C0121
:10377000892BB1F0E12CF12CDD24D394E8012196C2
:10378000F8018491853709F469C090F4843708F012
:1037900057C0843008F06EC0813009F18230D9F111
:1037A000DF91CF911F910F91FF90EF90DF900895DF
:1037B000883709F45CC058F4863709F454C0873759
:1037C00079F78E2D0E94DB1D0E94081E1FC09CE70A
:1037D000980F903728F78F770E94D81417C00E5F84
:1037E0001F4FFE01849190E2980F983060F487702B
:1037F000FD2D01C0FF0F8A95EAF78F2F0E94E11D72
:103800000E94081E02C00E94D613E8018F2D81116C
:1038100034C08E01B3CF0E5F1F4FFE01849190E242
:10382000980F983050F48770FD2D01C0FF0F8A95D6
:10383000EAF78F2F0E94E71DE3CF0E94D814E5CF4F
:103840000E5F1F4FFE01C491CC23F9F28FE99FE078
:103850000197F1F700C00000C150F6CF0E5F1F4F77
:10386000FE01F490D2CF0E94CA1DE82ECFCF0E9455
:10387000DE1DAACF0E94D613C9CFEFE9FFE0319732
:10388000F1F700C000008150C2CF6093AF01709388
:10389000B0018093B1019093B2010E945B1E0C9421
:1038A0003D186093AB017093AC018093AD01909390
:1038B000AE010E945C1E0C943D1808950C94451CAA
:1038C0000F931F930091AF011091B0012091B101AE
:1038D0003091B201602B712B822B932B1F910F9192
:1038E0000C94451C0F931F930091AF011091B001F0
:1038F0002091B1013091B20160237123822393237F
:103900001F910F910C94451C0F931F930091AF01D1
:103910001091B0012091B1013091B201602771275F
:10392000822793271F910F910C94451C60E070E053
:10393000CB010C94511C0F931F9341E050E060E0C9
:1039400070E08A019B0104C0000F111F221F331F6A
:103950008A95D2F7C901B8011F910F910C94511C9F
:103960000F931F9341E050E060E070E004C0440F0B
:10397000551F661F771F8A95D2F78091AB019091F2
:10398000AC01A091AD01B091AE018A019B01082B61
:10399000192B2A2B3B2BC901B8011F910F910C94B5
:1039A000511C0F931F9341E050E060E070E004C0B1
:1039B000440F551F661F771F8A95D2F7CB01BA01B6
:1039C00060957095809590950091AB011091AC0138
:1039D0002091AD013091AE016023712382239323A6
:1039E0001F910F910C94511C0F931F9341E050E0D5
:1039F00060E070E004C0440F551F661F771F8A9572
:103A0000D2F78091AB019091AC01A091AD01B09142
:103A1000AE018A019B01082719272A273B27C901E4
:103A2000B8011F910F910C94511C0F931F9300919B
:103A3000AB011091AC012091AD013091AE01602B32
:103A4000712B822B932B1F910F910C94511C0F9370
:103A50001F930091AB011091AC012091AD01309109
:103A6000AE0160237123822393231F910F910C9445
:103A7000511C0F931F930091AB011091AC01209149
:103A8000AD013091AE0160277127822793271F91E6
:103A90000F910C94511C0895CF92DF92EF92FF92F8
:103AA0000F931F93CF93DF938C01C090AB01D09005
:103AB000AC01E090AD01F090AE018091AF0190912A
:103AC000B001A091B101B091B201C82AD92AEA2A65
:103AD000FB2ACFE1D0E0D701C6010C2E04C0B69579
:103AE000A795979587950A94D2F780FF10C0B801E3
:103AF0008C2F0E94791F8130910549F0DF91CF9181
:103B00001F910F91FF90EF90DF90CF900895219734
:103B100010F7B80180E00E94791FF0CF20910D01CD
:103B200030910E01F90132969FEF40E051918517D7
:103B300051F09F3F19F4511101C0942F4F5F46304F
:103B4000A9F79F3F09F40895290F311D97FD3A9574
:103B5000F9018283089520910D0130910E01F90140
:103B60003296285F3F4F9081891301C010823196B1
:103B7000E217F307C1F7089581E090E0E0910D01AD
:103B8000F0910E01E80FF91F10820196883091051F
:103B9000A9F708958091BD0108959091BD01892BE9
:103BA0008093BD010895982F90958091BD01892340
:103BB0008093BD0108958093BD0108951092BD01C9
:103BC00008959091BC01892B8093BC010895982F92
:103BD00090958091BC0189238093BC010895109237
:103BE000BC0108958093B30108951092B301089524
:103BF00020910D0130910E01F9013196285F3F4F60
:103C000080E0919191118F5FE217F307D1F708954A
:103C1000E0910D01F0910E018091BD018083E09152
:103C20000D01F0910E0180819091BC01892B808360
:103C30009091B301992361F0E0910D01F0910E0193
:103C40008081892B80830E94F81D81111092B3011D
:103C500080910D0190910E010C94D111909335013A
:103C6000809334010895829590E09C01220F331FC8
:103C7000220F331F2C7C9595879595958795837397
:103C8000282B30E0C901880F991F8A7A359527952E
:103C90002575822B08950895CF93DF9300D000D02F
:103CA0001F92CDB7DEB70F900F900F900F900F902F
:103CB000DF91CF910895089508950C944313809156
:103CC000D301843021F11092BF0120E488E190E01B
:103CD0000FB6F894A895809360000FBE2093600003
:103CE00083B7817F846083BF83B7816083BF78940B
:103CF000889583B78E7F83BF0FB6F894A89580917F
:103D00006000886180936000109260000FBE08958B
:103D1000CF930E948F130E9442080E949013C0E02C
:103D20008C2F0E942509811105C0CF5FC031C1F7DA
:103D3000CF91089581E0FCCF0E9445130C944F1859
:103D40001F920F920FB60F9211248F939F93AF93F0
:103D5000BF938091BF01811113C08091C0019091E8
:103D6000C101A091C201B091C3014196A11DB11D35
:103D70008093C0019093C101A093C201B093C3018D
:103D8000BF91AF919F918F910F900FBE0F901F9099
:103D9000189582E084BD93E095BD9AEF97BD80931E
:103DA0006E0008952FB7F8948091C0019091C101E1
:103DB000A091C201B091C3012FBF08952FB7F8940D
:103DC0006091C0017091C1018091C2019091C301C5
:103DD0002FBF0895CF92DF92EF92FF920F931F9320
:103DE0002FB7F8944091C0015091C1016091C20178
:103DF0007091C3012FBF6A017B01EE24FF248C0167
:103E000020E030E0C016D106E206F30650F0481B71
:103E1000590BCA011F910F91FF90EF90DF90CF9047
:103E2000089541505109F3CF1F920F920FB60F9290
:103E300011248F939F93AF93BF938091C001909172
:103E4000C101A091C201B091C3010196A11DB11D94
:103E50008093C0019093C101A093C201B093C301AC
:103E6000BF91AF919F918F910F900FBE0F901F90B8
:103E700018950E94DF0EF8942FEF87EA91E6215003
:103E800080409040E1F700C0000087E090EBDC014B
:103E90008093DC019093DD01A093DE01B093DF01FC
:103EA0009CE088E10FB6F894A895809360000FBE5F
:103EB00090936000FFCF80E090E00895089590E136
:103EC000899FF0011124E70FF11D83E0EE0FFF1F22
:103ED0008A95E1F7E60FF11DE055FF4F84910895B3
:103EE000E82FF0E0EE0FFF1FE45DF0408591949124
:103EF00008950E945F1F90E4980F903218F40E947A
:103F0000701F08958D3B60F4883AA8F5853A30F526
:103F1000843000F5813009F4AFC020E030E01CC0EF
:103F2000883E90F4803EB0F48F3BB9F70E944F1862
:103F30002FEF80E792E0215080409040E1F700C0F1
:103F400000000E94391FE9CF803F38F3282F30E06E
:103F5000306502C0282F30E0C9010895853A29F064
:103F6000863A31F023E830E4F7CF21E830E4F4CFAB
:103F700022E830E4F1CF883A09F43FC0893A09F4E5
:103F80003FC08A3A09F43FC08B3A09F43FC08C3AEB
:103F900009F43FC08D3A09F43FC08E3A09F43FC09E
:103FA0008F3A09F43FC0813B09F43FC0803B09F4DC
:103FB0003FC0823B09F43FC0833B09F43FC0843BD0
:103FC00009F43FC0853B09F43FC0863B09F43FC07C
:103FD000873B09F43FC0883B09F43FC0893B09F4A3
:103FE0003FC08A3B09F43FC08B3B09F43FC08C3B88
:103FF00009F43FC020E034E4AFCF22EE34E4ACCF8C
:1040000029EE34E4A9CF2AEE34E4A6CF25EB34E43C
:10401000A3CF26EB34E4A0CF23EB34E49DCF24EBF5
:1040200034E49ACF27EB34E497CF2CEC34E494CFEC
:104030002DEC34E491CF23E835E48ECF2AE835E443
:104040008BCF22E935E488CF24E935E485CF21E21E
:1040500036E482CF23E236E47FCF24E236E47CCF1D
:1040600025E236E479CF26E236E476CF27E236E45D
:1040700073CF2AE236E470CF21E030E06DCF80913B
:10408000C60180FF12C06091120185E0689FB001F7
:104090001124759567957595679560387105A8F534
:1040A0006115710581F581E0089581FF09C0609176
:1040B000120185E0689FB001112475956795EDCFD9
:1040C00082FF07C06091120185E0689FB001112452
:1040D000E4CF9091C7019923A1F060911101961747
:1040E00088F72091120185E0289F90011124929F6A
:1040F000A001939F500D112470E0CA010E94CE27A9
:10410000CCCF65E070E0862F08958FE70895809109
:10411000C60180FF0CC06091100170E07595679535
:10412000759567956115710539F581E0089581FFF1
:1041300006C06091100170E075956795F3CF82FF1E
:1041400008C06091100170E06038710558F38FE786
:1041500008958091C701882369F060910F01861747
:1041600080F790911001899FC001112470E00E9496
:10417000CE27EACF61E070E0862F0895803F31F4CA
:104180000E943F2081958093CA010895813F19F4D0
:104190000E943F20F8CF823F31F40E943F2081955A
:1041A0008093C9010895833F19F40E943F20F8CFFE
:1041B000893F29F40E9487208093CB0108958A3F8C
:1041C00021F40E9487208195F7CF8B3F31F40E9424
:1041D000872081958093CC0108958C3F19F40E942B
:1041E0008720F8CF843F31F48091C80181608093AB
:1041F000C8010895853F21F48091C8018260F7CFFE
:10420000863F21F48091C8018460F1CF873F21F47B
:104210008091C8018860EBCF883F21F48091C8016C
:104220008061E5CF8D3F31F48091C601816080933C
:10423000C60108958E3F21F48091C6018260F7CFB8
:104240008F3FB9F78091C6018460F1CF803FC1F400
:104250008091CA0187FD1092CA018091C901811124
:104260000EC08091CA0181110AC08091CB018111D9
:1042700006C08091CC01811102C01092C70108953F
:10428000813F29F48091CA0118162CF3E6CF909152
:10429000C901823F29F497FFE0CF1092C901DDCF19
:1042A000833F19F41916CCF3D8CF893F39F48091A4
:1042B000CB01181694F61092CB01CFCF8A3F29F488
:1042C0008091CB0187FFC9CFF6CF8B3F39F4809126
:1042D000CC0187FFC2CF1092CC01BFCF8C3F29F415
:1042E0008091CC011816BCF3B8CF843F31F4809193
:1042F000C8018E7F8093C801B0CF853F21F48091A3
:10430000C8018D7FF7CF863F21F48091C8018B7F54
:10431000F1CF873F21F48091C801877FEBCF883FA1
:1043200021F48091C8018F7EE5CF8D3F31F48091DB
:10433000C6018E7F8093C60190CF8E3F21F480917D
:10434000C6018D7FF7CF8F3F09F087CF8091C601DF
:104350008B7FF0CF8091BE0183FF7EC089E295E024
:104360000E94D6058091C8011F928F9384E295E048
:104370009F938F930E946F0682E295E00E94D6057C
:104380008091C901282F082E000C330B3F938F9387
:104390008FE195E09F938F930E946F068DE195E0EA
:1043A0000E94D6058091CA01282F082E000C330BDD
:1043B0003F938F938AE195E09F938F930E946F06BE
:1043C00088E195E00E94D6058091CB01282F082E28
:1043D000000C330B3F938F9385E195E09F938F9370
:1043E0000E946F0683E195E00E94D6058091CC0182
:1043F000282F082E000C330B3F938F9380E195E01C
:104400009F938F930E946F068DE095E00E94D605E2
:104410008091C7011F928F938AE095E09F938F93BD
:104420000E946F0688E095E00E94D6058091C60143
:104430001F928F9385E095E09F938F930E946F0664
:1044400082E095E00E94D6058DB79EB74C960FB6D8
:10445000F8949EBF0FBE8DBF88EC91E00E941912A8
:104460000E94D21E9093C5018093C40108951F93AA
:10447000CF93DF938091C4019091C5010E94EA1E01
:10448000AC019091C7019923D1F02091130130E044
:104490004217530780F08091C901C091CA01D091A1
:1044A000CB011091CC01811111C0C1117FC0D1117C
:1044B0007DC011117BC0DF91CF911F910895209194
:1044C00014018AE0289F90011124E2CF9F3F19F048
:1044D0009F5F9093C701181624F40E943F20809399
:1044E000C9018091C90187FF05C00E943F208195C5
:1044F0008093C9011C1624F40E943F208093CA01B6
:104500008091CA0187FF05C00E943F20819580935A
:10451000CA016091C901662331F1C091CA01CC235F
:1045200011F1062E000C770B880B990B0E94C926FF
:1045300023E333E343E35FE30E942D270E949126A8
:104540006093C9016C2FCC0F770B880B990B0E94DD
:10455000C92623E333E343E35FE30E942D270E9450
:1045600091266093CA011D1624F40E94872080932F
:10457000CB018091CB0187FF05C00E9487208195E8
:104580008093CB01111624F40E9487208093CC01E4
:104590008091CC0187FF05C00E9487208195809380
:1045A000CC01DF91CF911F910C94AA219F3F09F07C
:1045B0008FCFA0CFE8ECF1E085E0DF011D928A9576
:1045C000E9F71092C7011092C60108958CE497E0B4
:1045D0000E94D6051F9281E08F931F9285E08F93F2
:1045E0008EEF96E09F938F930E946F060F900F902F
:1045F0000F900F900F900F900895833009F445C0ED
:1046000028F4813061F0823049F10895853009F451
:104610006AC008F451C0863009F47CC008958091C6
:104620001401262F30E0280F311D2F3F310594F45F
:10463000680F60931401809114011F928F9387E398
:1046400096E09F938F930E946F060F900F900F90AC
:104650000F9008958FEF80931401EDCF8091130197
:10466000262F30E0280F311D2F3F310554F4680FFD
:1046700060931301809113011F928F9385E296E05E
:10468000E0CF8FEF80931301F5CF80911201262F99
:1046900030E0280F311D2F3F310554F4680F60932F
:1046A0001201809112011F928F9382E196E0C9CF8F
:1046B0008FEF80931201F5CF80911101262F30E00A
:1046C000280F311D2F3F310554F4680F60931101FD
:1046D000809111011F928F938DEF95E0B2CF8FEFF4
:1046E00080931101F5CF80911001262F30E0280F23
:1046F000311D2F3F310554F4680F609310018091F4
:1047000010011F928F9384EE95E09BCF8FEF8093E3
:104710001001F5CF20910F01862F90E0820F911D9F
:104720008F3F910554F4620F60930F0180910F0148
:104730001F928F9389EC95E084CF8FEF80930F01C8
:10474000F5CF8330C9F128F4813061F0823019F15E
:104750000895853009F452C008F43FC0863009F44A
:104760005EC0089580911401681790F4861B8093B1
:104770001401809114011F928F938AEB95E09F930F
:104780008F930E946F060F900F900F900F900895D7
:1047900010921401EECF80911301681750F4861B1C
:1047A00080931301809113011F928F9388EA95E003
:1047B000E6CF10921301F6CF80911201681750F4E2
:1047C000861B80931201809112011F928F9385E9BD
:1047D00095E0D5CF10921201F6CF809111016817A4
:1047E00050F4861B80931101809111011F928F93C9
:1047F00080E895E0C4CF10921101F6CF80911001AE
:10480000681750F4861B80931001809110011F924D
:104810008F9387E695E0B3CF10921001F6CF809189
:104820000F01681750F4861B80930F0180910F01D0
:104830001F928F938CE495E0A2CF10920F01F6CFD8
:10484000CF93C82F1F928F9381E598E09F938F930A
:104850000E946F0661E070E080E090E004C0660FA7
:10486000771F881F991FCA95D2F70E945E1C0F9070
:104870000F900F900F90CF910C944F18873208F043
:1048800041C08E3108F0FEC08E3009F497C078F434
:10489000873009F479C08B3009F45FC0863009F4A1
:1048A00061C080E199E00E94D60580E008958631DC
:1048B00009F4B1C090F48031A1F78091BE0183FB6F
:1048C000992790F921E0922790FB83F98093BE010C
:1048D00083FF87C08DE89AE068C0893109F484C0FD
:1048E0008B31F9F68091BE0181FB992790F921E087
:1048F000922790FB81F98093BE0181FF5CC086EC1A
:104900009AE053C0883349F150F4893221F085335D
:1049100011F0873231F680E00E9420241CC08334DD
:10492000D1F328F48A3308F4BCCF8953F5CF883407
:1049300009F0B7CF0E944F188CEE9AE00E94D6057E
:104940002FEF83ED90E3215080409040E1F700C0CD
:1049500000000E94391F81E008958DE798E00E94D1
:10496000D605F9CF8091BE01817F8E7F8093BE01F5
:1049700086E598E00E94D6058DEF9AE00E94D60564
:1049800081E08093CE0108958091BE0180FF0BC02D
:104990008FED9AE00E94D6058091BE01817F8E7FC7
:1049A0008093BE01D8CF83ED9AE00E94D605809116
:1049B000BE018160F5CF88EB9AE0D1CF8091BE0136
:1049C00082FB992790F921E0922790FB82F980934E
:1049D000BE0182FF03C089EA9AE0E7CF89E99AE045
:1049E000BECF80E89AE0BBCF81E79AE00E94D6056F
:1049F0008EE49AE00E94D60589E09AE00E94D605EE
:104A00008CED99E00E94D60586EA99E00E94D605D1
:104A10008BE799E0A4CF8DE699E00E94D6050E942D
:104A2000C5111F928F9383E599E09F938F930E9406
:104A30006F0680910C011F928F938CE399E09F93F6
:104A40008F930E946F0680915B011F928F9389E282
:104A500099E09F938F930E946F060E94DE1E9F93A2
:104A60008F937F936F9382E199E09F938F930E943E
:104A70006F068DB79EB742960FB6F8949EBF0FBED5
:104A80008DBF69CF8D5148CF80E008950C944425A7
:104A9000CF93C82F8091CE018130C9F038F0823099
:104AA00009F44BC01092CE0180E00FC067E08FE0A8
:104AB0000E944713882349F08C2F0E9446258111BC
:104AC0001DC08C2F0E943E248170CF91089567E015
:104AD0008FE00E9447138111EFCF8C2F0E94442555
:104AE00081111BC0C431D9F060F4CB3071F0C031FA
:104AF000D1F087E498E00E94D60513C081E090E0F1
:104B0000E3CFC93261F0C833A1F786E598E00E948F
:104B1000D6058DE498E00E94D60581E0D5CF1092AD
:104B2000CE0180E0D1CF0E94E62289E498E00E9485
:104B3000D60582E08093CE01F0CFC432C8F4CE31E6
:104B400008F0BEC0CB30E1F040F4C73009F4CFC06C
:104B50008BEE96E00E94D60526C0C331C1F1C43168
:104B6000B9F78091CD01882351F11092CD010AC08F
:104B7000CB3409F4BAC0C8F4C93299F3C83341F749
:104B80000E94E6228091CD01882309F4C7C01F92BC
:104B90008F9385EE96E09F938F930E946F060F9000
:104BA0000F900F900F9081E090CFC13509F497C01E
:104BB000C23509F48EC0CE3459F66AE091C08AEF4E
:104BC00096E00E94D60581E08093CE017ECF84EDF1
:104BD00096E00E94D60582EC96E00E94D605809170
:104BE00014011F928F938FEB96E09F938F930E94F7
:104BF0006F068DEB96E00E94D6058BEA96E00E9448
:104C0000D605809113011F928F9388EA96E09F93B7
:104C10008F930E946F0686EA96E00E94D60587E988
:104C200096E00E94D605809112011F928F9384E92D
:104C300096E09F938F930E946F0682E996E00E9410
:104C4000D60581E896E00E94D605809111011F9259
:104C50008F938EE796E09F938F930E946F068CE769
:104C600096E00E94D60587E696E00E94D6058091E0
:104C700010011F928F9384E696E09F938F930E947A
:104C80006F0682E696E00E94D6058BE496E00E94CD
:104C9000D60580910F011F928F9388E496E09F9331
:104CA0008F930E946F0686E496E00E94D6058DB72A
:104CB0009EB748960FB6F8949EBF0FBE8DBF62CFC9
:104CC000CE51EC2FF0E0E65DFE4F80818093CD0168
:104CD00059CF61E08091CD010E94FD2253CF61E068
:104CE0008091CD010E94A1234DCF6AE0F3CF8EE1E8
:104CF0008093140182E3809313018AE08093120170
:104D000084E18093110188E08093100188E2809310
:104D10000F018DEE96E00E94D60534CF82EE96E02C
:104D200019CF0E9498266894B1110C9427270895F2
:104D30000E940C2788F09F5798F0B92F9927B751F8
:104D4000B0F0E1F0660F771F881F991F1AF0BA952F
:104D5000C9F714C0B13091F00E942627B1E0089540
:104D60000C942627672F782F8827B85F39F0B93F32
:104D7000CCF3869577956795B395D9F73EF49095E2
:104D80008095709561957F4F8F4F9F4F0895E89460
:104D900009C097FB3EF490958095709561957F4F83
:104DA0008F4F9F4F9923A9F0F92F96E9BB27939531
:104DB000F695879577956795B795F111F8CFFAF441
:104DC000BB0F11F460FF1BC06F5F7F4F8F4F9F4F72
:104DD00016C0882311F096E911C0772321F09EE8D0
:104DE000872F762F05C0662371F096E8862F70E036
:104DF00060E02AF09A95660F771F881FDAF7880F10
:104E00009695879597F9089557FD9058440F551F2B
:104E100059F05F3F71F04795880F97FB991F61F03C
:104E20009F3F79F087950895121613061406551FB3
:104E3000F2CF4695F1DF08C0161617061806991F1F
:104E4000F1CF86957105610508940895E894BB2714
:104E500066277727CB0197F908950E9440270C9485
:104E6000B1270E94A32738F00E94AA2720F095239B
:104E700011F00C949A270C94A02711240C94272746
:104E80000E94042770F3959FC1F3950F50E0551FC2
:104E9000629FF001729FBB27F00DB11D639FAA278F
:104EA000F00DB11DAA1F649F6627B00DA11D661FDE
:104EB000829F2227B00DA11D621F739FB00DA11DFF
:104EC000621F839FA00D611D221F749F3327A00DB9
:104ED000611D231F849F600D211D822F762F6A2F55
:104EE00011249F5750409AF0F1F088234AF0EE0FBA
:104EF000FF1FBB1F661F771F881F91505040A9F7E7
:104F00009E3F510580F00C949A270C9427275F3F11
:104F1000E4F3983ED4F3869577956795B795F79522
:104F2000E7959F5FC1F7FE2B880F911D969587959A
:104F300097F9089597F99F6780E870E060E0089519
:104F40009FEF80EC089500240A94161617061806A1
:104F50000906089500240A9412161306140605067D
:104F60000895092E0394000C11F4882352F0BB0F0E
:104F700040F4BF2B11F460FF04C06F5F7F4F8F4F71
:104F80009F4F0895991B79E004C0991F961708F068
:104F9000961B881F7A95C9F78095089597FB072E71
:104FA00016F4009407D077FD09D00E94E82707FC8B
:104FB00005D03EF4909581959F4F08957095619529
:104FC0007F4F0895EE0FFF1F0590F491E02D099497
:104FD000AA1BBB1B51E107C0AA1FBB1FA617B7071F
:104FE00010F0A61BB70B881F991F5A95A9F780953B
:0C4FF0009095BC01CD010895F894FFCF0E
:104FFC00FFFF370A2A0B050BD10A9D0A01B40128C1
:10500C0008140A321E404D36226A041D04E703C5FB
:10501C000351036A0383039C030001020304050686
:04502C000708090068
:00000001FF
